{
  "_format": "hh-sol-artifact-1",
  "contractName": "PokiToken",
  "sourceName": "contracts/PokiToken.sol",
  "abi": [
    {
      "inputs": [],
      "stateMutability": "nonpayable",
      "type": "constructor"
    },
    {
      "inputs": [
        {
          "internalType": "address",
          "name": "spender",
          "type": "address"
        },
        {
          "internalType": "uint256",
          "name": "allowance",
          "type": "uint256"
        },
        {
          "internalType": "uint256",
          "name": "needed",
          "type": "uint256"
        }
      ],
      "name": "ERC20InsufficientAllowance",
      "type": "error"
    },
    {
      "inputs": [
        {
          "internalType": "address",
          "name": "sender",
          "type": "address"
        },
        {
          "internalType": "uint256",
          "name": "balance",
          "type": "uint256"
        },
        {
          "internalType": "uint256",
          "name": "needed",
          "type": "uint256"
        }
      ],
      "name": "ERC20InsufficientBalance",
      "type": "error"
    },
    {
      "inputs": [
        {
          "internalType": "address",
          "name": "approver",
          "type": "address"
        }
      ],
      "name": "ERC20InvalidApprover",
      "type": "error"
    },
    {
      "inputs": [
        {
          "internalType": "address",
          "name": "receiver",
          "type": "address"
        }
      ],
      "name": "ERC20InvalidReceiver",
      "type": "error"
    },
    {
      "inputs": [
        {
          "internalType": "address",
          "name": "sender",
          "type": "address"
        }
      ],
      "name": "ERC20InvalidSender",
      "type": "error"
    },
    {
      "inputs": [
        {
          "internalType": "address",
          "name": "spender",
          "type": "address"
        }
      ],
      "name": "ERC20InvalidSpender",
      "type": "error"
    },
    {
      "inputs": [
        {
          "internalType": "address",
          "name": "owner",
          "type": "address"
        }
      ],
      "name": "OwnableInvalidOwner",
      "type": "error"
    },
    {
      "inputs": [
        {
          "internalType": "address",
          "name": "account",
          "type": "address"
        }
      ],
      "name": "OwnableUnauthorizedAccount",
      "type": "error"
    },
    {
      "anonymous": false,
      "inputs": [
        {
          "indexed": true,
          "internalType": "address",
          "name": "owner",
          "type": "address"
        },
        {
          "indexed": true,
          "internalType": "address",
          "name": "spender",
          "type": "address"
        },
        {
          "indexed": false,
          "internalType": "uint256",
          "name": "value",
          "type": "uint256"
        }
      ],
      "name": "Approval",
      "type": "event"
    },
    {
      "anonymous": false,
      "inputs": [
        {
          "indexed": true,
          "internalType": "address",
          "name": "newMarketplace",
          "type": "address"
        }
      ],
      "name": "MarketplaceUpdated",
      "type": "event"
    },
    {
      "anonymous": false,
      "inputs": [
        {
          "indexed": true,
          "internalType": "address",
          "name": "previousOwner",
          "type": "address"
        },
        {
          "indexed": true,
          "internalType": "address",
          "name": "newOwner",
          "type": "address"
        }
      ],
      "name": "OwnershipTransferred",
      "type": "event"
    },
    {
      "anonymous": false,
      "inputs": [
        {
          "indexed": true,
          "internalType": "address",
          "name": "burner",
          "type": "address"
        },
        {
          "indexed": false,
          "internalType": "uint256",
          "name": "amount",
          "type": "uint256"
        }
      ],
      "name": "TokensBurned",
      "type": "event"
    },
    {
      "anonymous": false,
      "inputs": [
        {
          "indexed": true,
          "internalType": "address",
          "name": "spender",
          "type": "address"
        },
        {
          "indexed": false,
          "internalType": "uint256",
          "name": "amount",
          "type": "uint256"
        }
      ],
      "name": "TokensSpent",
      "type": "event"
    },
    {
      "anonymous": false,
      "inputs": [
        {
          "indexed": true,
          "internalType": "address",
          "name": "from",
          "type": "address"
        },
        {
          "indexed": true,
          "internalType": "address",
          "name": "to",
          "type": "address"
        },
        {
          "indexed": false,
          "internalType": "uint256",
          "name": "value",
          "type": "uint256"
        }
      ],
      "name": "Transfer",
      "type": "event"
    },
    {
      "inputs": [
        {
          "internalType": "address",
          "name": "owner",
          "type": "address"
        },
        {
          "internalType": "address",
          "name": "spender",
          "type": "address"
        }
      ],
      "name": "allowance",
      "outputs": [
        {
          "internalType": "uint256",
          "name": "",
          "type": "uint256"
        }
      ],
      "stateMutability": "view",
      "type": "function"
    },
    {
      "inputs": [
        {
          "internalType": "address",
          "name": "spender",
          "type": "address"
        },
        {
          "internalType": "uint256",
          "name": "value",
          "type": "uint256"
        }
      ],
      "name": "approve",
      "outputs": [
        {
          "internalType": "bool",
          "name": "",
          "type": "bool"
        }
      ],
      "stateMutability": "nonpayable",
      "type": "function"
    },
    {
      "inputs": [
        {
          "internalType": "address",
          "name": "account",
          "type": "address"
        }
      ],
      "name": "balanceOf",
      "outputs": [
        {
          "internalType": "uint256",
          "name": "",
          "type": "uint256"
        }
      ],
      "stateMutability": "view",
      "type": "function"
    },
    {
      "inputs": [
        {
          "internalType": "address",
          "name": "account",
          "type": "address"
        },
        {
          "internalType": "uint256",
          "name": "amount",
          "type": "uint256"
        }
      ],
      "name": "burnFrom",
      "outputs": [],
      "stateMutability": "nonpayable",
      "type": "function"
    },
    {
      "inputs": [],
      "name": "decimals",
      "outputs": [
        {
          "internalType": "uint8",
          "name": "",
          "type": "uint8"
        }
      ],
      "stateMutability": "view",
      "type": "function"
    },
    {
      "inputs": [],
      "name": "marketplace",
      "outputs": [
        {
          "internalType": "address",
          "name": "",
          "type": "address"
        }
      ],
      "stateMutability": "view",
      "type": "function"
    },
    {
      "inputs": [],
      "name": "name",
      "outputs": [
        {
          "internalType": "string",
          "name": "",
          "type": "string"
        }
      ],
      "stateMutability": "view",
      "type": "function"
    },
    {
      "inputs": [],
      "name": "owner",
      "outputs": [
        {
          "internalType": "address",
          "name": "",
          "type": "address"
        }
      ],
      "stateMutability": "view",
      "type": "function"
    },
    {
      "inputs": [],
      "name": "renounceOwnership",
      "outputs": [],
      "stateMutability": "nonpayable",
      "type": "function"
    },
    {
      "inputs": [
        {
          "internalType": "address",
          "name": "_marketplace",
          "type": "address"
        }
      ],
      "name": "setMarketplace",
      "outputs": [],
      "stateMutability": "nonpayable",
      "type": "function"
    },
    {
      "inputs": [
        {
          "internalType": "address",
          "name": "account",
          "type": "address"
        },
        {
          "internalType": "uint256",
          "name": "amount",
          "type": "uint256"
        }
      ],
      "name": "spendFrom",
      "outputs": [],
      "stateMutability": "nonpayable",
      "type": "function"
    },
    {
      "inputs": [],
      "name": "symbol",
      "outputs": [
        {
          "internalType": "string",
          "name": "",
          "type": "string"
        }
      ],
      "stateMutability": "view",
      "type": "function"
    },
    {
      "inputs": [],
      "name": "totalSupply",
      "outputs": [
        {
          "internalType": "uint256",
          "name": "",
          "type": "uint256"
        }
      ],
      "stateMutability": "view",
      "type": "function"
    },
    {
      "inputs": [
        {
          "internalType": "address",
          "name": "to",
          "type": "address"
        },
        {
          "internalType": "uint256",
          "name": "value",
          "type": "uint256"
        }
      ],
      "name": "transfer",
      "outputs": [
        {
          "internalType": "bool",
          "name": "",
          "type": "bool"
        }
      ],
      "stateMutability": "nonpayable",
      "type": "function"
    },
    {
      "inputs": [
        {
          "internalType": "address",
          "name": "from",
          "type": "address"
        },
        {
          "internalType": "address",
          "name": "to",
          "type": "address"
        },
        {
          "internalType": "uint256",
          "name": "value",
          "type": "uint256"
        }
      ],
      "name": "transferFrom",
      "outputs": [
        {
          "internalType": "bool",
          "name": "",
          "type": "bool"
        }
      ],
      "stateMutability": "nonpayable",
      "type": "function"
    },
    {
      "inputs": [
        {
          "internalType": "address",
          "name": "newOwner",
          "type": "address"
        }
      ],
      "name": "transferOwnership",
      "outputs": [],
      "stateMutability": "nonpayable",
      "type": "function"
    }
  ],
  "bytecode": "0x60806040523480156200001157600080fd5b5033604051806040016040528060098152602001682837b5b4aa37b5b2b760b91b815250604051806040016040528060038152602001621412d560ea1b815250816003908162000062919062000346565b50600462000071828262000346565b5050506001600160a01b038116620000a457604051631e4fbdf760e01b8152600060048201526024015b60405180910390fd5b620000af81620000de565b50620000d833620000c36012600a62000527565b620000d290620186a06200053f565b62000130565b6200056f565b600580546001600160a01b038381166001600160a01b0319831681179093556040519116919082907f8be0079c531659141344cd1fd0a4f28419497f9722a3daafe3b4186f6b6457e090600090a35050565b6001600160a01b0382166200015c5760405163ec442f0560e01b8152600060048201526024016200009b565b6200016a600083836200016e565b5050565b6001600160a01b0383166200019d57806002600082825462000191919062000559565b90915550620002119050565b6001600160a01b03831660009081526020819052604090205481811015620001f25760405163391434e360e21b81526001600160a01b038516600482015260248101829052604481018390526064016200009b565b6001600160a01b03841660009081526020819052604090209082900390555b6001600160a01b0382166200022f576002805482900390556200024e565b6001600160a01b03821660009081526020819052604090208054820190555b816001600160a01b0316836001600160a01b03167fddf252ad1be2c89b69c2b068fc378daa952ba7f163c4a11628f55a4df523b3ef836040516200029491815260200190565b60405180910390a3505050565b634e487b7160e01b600052604160045260246000fd5b600181811c90821680620002cc57607f821691505b602082108103620002ed57634e487b7160e01b600052602260045260246000fd5b50919050565b601f8211156200034157600081815260208120601f850160051c810160208610156200031c5750805b601f850160051c820191505b818110156200033d5782815560010162000328565b5050505b505050565b81516001600160401b03811115620003625762000362620002a1565b6200037a81620003738454620002b7565b84620002f3565b602080601f831160018114620003b25760008415620003995750858301515b600019600386901b1c1916600185901b1785556200033d565b600085815260208120601f198616915b82811015620003e357888601518255948401946001909101908401620003c2565b5085821015620004025787850151600019600388901b60f8161c191681555b5050505050600190811b01905550565b634e487b7160e01b600052601160045260246000fd5b600181815b80851115620004695781600019048211156200044d576200044d62000412565b808516156200045b57918102915b93841c93908002906200042d565b509250929050565b600082620004825750600162000521565b81620004915750600062000521565b8160018114620004aa5760028114620004b557620004d5565b600191505062000521565b60ff841115620004c957620004c962000412565b50506001821b62000521565b5060208310610133831016604e8410600b8410161715620004fa575081810a62000521565b62000506838362000428565b80600019048211156200051d576200051d62000412565b0290505b92915050565b60006200053860ff84168362000471565b9392505050565b808202811582820484141762000521576200052162000412565b8082018082111562000521576200052162000412565b610af1806200057f6000396000f3fe608060405234801561001057600080fd5b50600436106101005760003560e01c806373ad6c2d11610097578063a9059cbb11610066578063a9059cbb14610213578063abc8c7af14610226578063dd62ed3e14610239578063f2fde38b1461027257600080fd5b806373ad6c2d146101c057806379cc6790146101d35780638da5cb5b146101e657806395d89b411461020b57600080fd5b8063313ce567116100d3578063313ce5671461016b5780636aade2881461017a57806370a082311461018f578063715018a6146101b857600080fd5b806306fdde0314610105578063095ea7b31461012357806318160ddd1461014657806323b872dd14610158575b600080fd5b61010d610285565b60405161011a919061093b565b60405180910390f35b6101366101313660046109a5565b610317565b604051901515815260200161011a565b6002545b60405190815260200161011a565b6101366101663660046109cf565b610331565b6040516012815260200161011a565b61018d6101883660046109a5565b610355565b005b61014a61019d366004610a0b565b6001600160a01b031660009081526020819052604090205490565b61018d610428565b61018d6101ce366004610a0b565b61043c565b61018d6101e13660046109a5565b61048e565b6005546001600160a01b03165b6040516001600160a01b03909116815260200161011a565b61010d610538565b6101366102213660046109a5565b610547565b6006546101f3906001600160a01b031681565b61014a610247366004610a2d565b6001600160a01b03918216600090815260016020908152604080832093909416825291909152205490565b61018d610280366004610a0b565b610555565b60606003805461029490610a60565b80601f01602080910402602001604051908101604052809291908181526020018280546102c090610a60565b801561030d5780601f106102e25761010080835404028352916020019161030d565b820191906000526020600020905b8154815290600101906020018083116102f057829003601f168201915b5050505050905090565b600033610325818585610593565b60019150505b92915050565b60003361033f8582856105a5565b61034a858585610624565b506001949350505050565b6006546001600160a01b031633146103be5760405162461bcd60e51b815260206004820152602160248201527f4f6e6c79206d61726b6574706c6163652063616e207370656e6420746f6b656e6044820152607360f81b60648201526084015b60405180910390fd5b6103c98233836105a5565b6006546103e19083906001600160a01b031683610624565b816001600160a01b03167f2efa3c8729bb4709645a357fcbdacbae23c038445bdb417a51d8c1dcc68be4658260405161041c91815260200190565b60405180910390a25050565b610430610683565b61043a60006106b0565b565b610444610683565b600680546001600160a01b0319166001600160a01b0383169081179091556040517f210690abd7fd6cdbb8f2beb202b2a253d58d7a0813b2175c4172c14c0c1af6dc90600090a250565b6006546001600160a01b031633146104e85760405162461bcd60e51b815260206004820181905260248201527f4f6e6c79206d61726b6574706c6163652063616e206275726e20746f6b656e7360448201526064016103b5565b6104f38233836105a5565b6104fd8282610702565b816001600160a01b03167ffd38818f5291bf0bb3a2a48aadc06ba8757865d1dabd804585338aab3009dcb68260405161041c91815260200190565b60606004805461029490610a60565b600033610325818585610624565b61055d610683565b6001600160a01b03811661058757604051631e4fbdf760e01b8152600060048201526024016103b5565b610590816106b0565b50565b6105a0838383600161073c565b505050565b6001600160a01b0383811660009081526001602090815260408083209386168352929052205460001981101561061e578181101561060f57604051637dc7a0d960e11b81526001600160a01b038416600482015260248101829052604481018390526064016103b5565b61061e8484848403600061073c565b50505050565b6001600160a01b03831661064e57604051634b637e8f60e11b8152600060048201526024016103b5565b6001600160a01b0382166106785760405163ec442f0560e01b8152600060048201526024016103b5565b6105a0838383610811565b6005546001600160a01b0316331461043a5760405163118cdaa760e01b81523360048201526024016103b5565b600580546001600160a01b038381166001600160a01b0319831681179093556040519116919082907f8be0079c531659141344cd1fd0a4f28419497f9722a3daafe3b4186f6b6457e090600090a35050565b6001600160a01b03821661072c57604051634b637e8f60e11b8152600060048201526024016103b5565b61073882600083610811565b5050565b6001600160a01b0384166107665760405163e602df0560e01b8152600060048201526024016103b5565b6001600160a01b03831661079057604051634a1406b160e11b8152600060048201526024016103b5565b6001600160a01b038085166000908152600160209081526040808320938716835292905220829055801561061e57826001600160a01b0316846001600160a01b03167f8c5be1e5ebec7d5bd14f71427d1e84f3dd0314c0f7b2291e5b200ac8c7c3b9258460405161080391815260200190565b60405180910390a350505050565b6001600160a01b03831661083c5780600260008282546108319190610a9a565b909155506108ae9050565b6001600160a01b0383166000908152602081905260409020548181101561088f5760405163391434e360e21b81526001600160a01b038516600482015260248101829052604481018390526064016103b5565b6001600160a01b03841660009081526020819052604090209082900390555b6001600160a01b0382166108ca576002805482900390556108e9565b6001600160a01b03821660009081526020819052604090208054820190555b816001600160a01b0316836001600160a01b03167fddf252ad1be2c89b69c2b068fc378daa952ba7f163c4a11628f55a4df523b3ef8360405161092e91815260200190565b60405180910390a3505050565b600060208083528351808285015260005b818110156109685785810183015185820160400152820161094c565b506000604082860101526040601f19601f8301168501019250505092915050565b80356001600160a01b03811681146109a057600080fd5b919050565b600080604083850312156109b857600080fd5b6109c183610989565b946020939093013593505050565b6000806000606084860312156109e457600080fd5b6109ed84610989565b92506109fb60208501610989565b9150604084013590509250925092565b600060208284031215610a1d57600080fd5b610a2682610989565b9392505050565b60008060408385031215610a4057600080fd5b610a4983610989565b9150610a5760208401610989565b90509250929050565b600181811c90821680610a7457607f821691505b602082108103610a9457634e487b7160e01b600052602260045260246000fd5b50919050565b8082018082111561032b57634e487b7160e01b600052601160045260246000fdfea26469706673582212205df88c4d451e2ecc9d5e02ad4c78560e48096e25dd5ad4d856a04d6fc10f1b4464736f6c63430008140033",
  "linkReferences": {},
  "deployedLinkReferences": {}
}